:100000000C945D000C9485000C9485000C94850084
:100010000C9485000C9485000C9485000C9485004C
:100020000C9485000C9485000C9485000C9485003C
:100030000C9485000C9485000C9485000C9485002C
:100040000C941F0C0C9485000C94ED0B0C94C70BB6
:100050000C9485000C9485000C9485000C9485000C
:100060000C9485000C94850000000008000201003B
:100070000003040700000000000000000000000072
:10008000250028002B0000000000240027002A0083
:10009000040404040404040402020202020203032E
:1000A0000303030301020408102040800102040836
:1000B0001020010204081020690C11241FBECFEF8C
:1000C000D8E0DEBFCDBF11E0A0E0B1E0E8EDF2E2A4
:1000D00002C005900D92A237B107D9F722E0A2E73E
:1000E000B1E001C01D92A93BB207E1F710E0CDE5F8
:1000F000D0E004C02197FE010E94720FCC35D107D9
:10010000C9F70E94130D0C946A110C94000090E042
:10011000FC01EC55FF4F249180579F4FFC018491C7
:10012000882399F090E0880F991FFC01EA57FF4F50
:10013000A591B491FC01E458FF4F859194918FB73C
:10014000F894EC91E22BEC938FBF0895FC0124818D
:1001500035816217730720F480819181009729F41B
:1001600010927D018DE791E00895860F971F089505
:10017000AF92BF92CF92DF92EF92FF920F931F93B5
:10018000CF93DF936C017B018B01040F151FEB01F3
:100190005E01AE18BF08C017D10759F06991D601AA
:1001A000ED91FC910190F081E02DC6010995892B1C
:1001B00079F7C501DF91CF911F910F91FF90EF90DB
:1001C000DF90CF90BF90AF900895FC01538D448D88
:1001D000252F30E0842F90E0821B930B541710F0F2
:1001E000CF96089501970895FC01918D828D9817FF
:1001F00061F0A28DAE0FBF2FB11D5D968C91928DD7
:100200009F5F9F73928F90E008958FEF9FEF089507
:10021000FC01918D828D981731F0828DE80FF11DD0
:10022000858D90E008958FEF9FEF0895FC01918DEB
:10023000228D892F90E0805C9F4F821B91098F73E4
:100240009927089582EB91E00E94160121E0892B05
:1002500009F420E0822F089580E090E0892B29F0B6
:100260000E94220181110C9400000895FC01A48DCC
:10027000A80FB92FB11DA35ABF4F2C91848D90E0C8
:1002800001968F739927848FA689B7892C93A089AB
:10029000B1898C91837080648C93938D848D981335
:1002A00006C00288F389E02D80818F7D80830895C8
:1002B000EF92FF920F931F93CF93DF93EC0181E0B6
:1002C000888F9B8D8C8D98131AC0E889F98980815D
:1002D00085FF15C09FB7F894EE89FF896083E88990
:1002E000F98980818370806480839FBF81E090E082
:1002F000DF91CF911F910F91FF90EF900895F62E0F
:100300000B8D10E00F5F1F4F0F731127E02E8C8DA8
:100310008E110CC00FB607FCFACFE889F9898081ED
:1003200085FFF5CFCE010E943601F1CFEB8DEC0FAA
:10033000FD2FF11DE35AFF4FF0829FB7F8940B8F0A
:10034000EA89FB8980818062CFCFCF93DF93EC0174
:10035000888D8823B9F0AA89BB89E889F9898C91AD
:1003600085FD03C0808186FD0DC00FB607FCF7CF69
:100370008C9185FFF2CF808185FFEDCFCE010E9469
:100380003601E9CFDF91CF91089590E0FC01E85963
:10039000FF4F2491FC01EC55FF4F3491FC01E057D5
:1003A000FF4FE491EE23C9F0222339F0233001F10D
:1003B000A8F4213019F1223029F1F0E0EE0FFF1FEF
:1003C000E458FF4FA591B4918FB7F894EC91611167
:1003D00026C030953E233C938FBF08952730A9F067
:1003E0002830C9F0243049F7809180008F7D03C008
:1003F000809180008F7780938000DFCF84B58F77E6
:1004000084BDDBCF84B58F7DFBCF8091B0008F772B
:100410008093B000D2CF8091B0008F7DF9CF3E2B7A
:10042000DACF3FB7F8948091790190917A01A09149
:100430007B01B0917C0126B5A89B05C02F3F19F028
:100440000196A11DB11D3FBFBA2FA92F982F882754
:10045000BC01CD01620F711D811D911D42E0660F2F
:10046000771F881F991F4A95D1F708958F929F9201
:10047000AF92BF92CF92DF92EF92FF924B015C015D
:100480000E9411026B017C010E9411026C197D090E
:100490008E099F09683E734081059105A8F321E00C
:1004A000821A9108A108B10888EEC80E83E0D81E10
:1004B000E11CF11C81149104A104B10429F7FF90FF
:1004C000EF90DF90CF90BF90AF909F908F90089566
:1004D0002FB7F89460917501709176018091770142
:1004E000909178012FBF08950F931F930E94680287
:1004F0006093BA017093BB018093BC019093BD01DE
:1005000082EB91E00E94F40097FF1DC00E946802F8
:100510000091BA011091BB012091BC013091BD0145
:10052000601B710B820B930B0091B6011091B70108
:100530002091B8013091B9016017710782079307C4
:10054000F8F28FEF9FEF1F910F91089561E0809176
:10055000B1010C94C50160E08091B1010C94C5011A
:1005600008958EBD00000DB407FEFDCF8EB5089531
:100570008CBD9DBD0895CF93DF93D82FC62F80915A
:100580004F02909150020E94B8020E94AB0280E09C
:100590000E94B1028D2F0E94B1028C2F0E94B102E5
:1005A00080E00E94B102C82F0E94A6028C2FDF912A
:1005B000CF910895DF92EF92FF920F931F93CF9305
:1005C000DF93D82FD92EC62F7A01890180914F024F
:1005D000909150020E94B8020E94AB028D2D0E94A1
:1005E000B1028D2F0E94B1028C2F0E94B102E7014F
:1005F000E00EF11ECE15DF0521F089910E94B102B7
:10060000F9CF0E94A602C801DF91CF911F910F91EF
:10061000FF90EF90DF9008951F93CF93DF93182FF3
:10062000D62FC42F80914F02909150020E94B802A1
:100630000E94AB0280E00E94B102812F0E94B102B1
:100640008D2F0E94B1028C2F0E94B1020E94A6023F
:1006500081E0DF91CF911F910895CF92DF92EF92C9
:10066000FF920F931F93CF93DF93CDB7DEB7C254A2
:10067000D1090FB6F894DEBF0FBECDBFFC01828159
:100680009381A481B58123968CAF9DAFAEAFBFAFF0
:10069000239721E023962FAF239723964CAD5DAD92
:1006A0006EAD7FAD23974BAB5CAB6DAB7EAB89AFD3
:1006B0009AAFABAFBCAF8DA79EA7AFA7B8AB28AB27
:1006C0004DA55EA56FA578A94FA358A769A77AA7DE
:1006D0002EAB4BA95CA96DA97EA949A35AA36BA314
:1006E0007CA38B8F9C8FAD8FBE8F4AE451E05C8BD7
:1006F0004B8B3FEF3D8B3E8B3F8B188E5E874D873C
:100700002AA7CFA0D8A4E9A4FAA4CF86D88AE98AD8
:10071000FA8A2CA309A11AA12BA13CA109871A8747
:100720002B873C875A8349838B839C83AD83BE830D
:10073000109175021093B10168EE73E080E090E0D3
:100740000E943602812F0E9487001FB7F894809183
:10075000B001811124C0EAE9F0E08491EEEAF0E012
:100760009491E82FF0E0EE0FFF1FEA57FF4FA5919D
:10077000B491EC91E92321F461E08AE00E94C50183
:100780008AE00E9487008CB580618CBD8CB5806446
:100790008CBD8DE00E9487008BE00E9487008091D5
:1007A000B0018F5F8093B0011FBF60E090E080E0F8
:1007B0000E94BB02482F406864E090E080E00E9405
:1007C0000C031CE088E0E82EF12C42E0612F8EE162
:1007D00090E00E940C0342E0612F8FE190E00E94C4
:1007E0000C03F1E0EF1AF108105EE114F10469F76F
:1007F00026E030E040E051E064E089E090E00E94D3
:10080000DA0224E030E0AE014D5F5F4F64E08FE03C
:1008100090E00E94DA0224E030E0AE01415F5F4FD9
:1008200064E081E090E00E94DA0224E030E0AE0172
:100830004B5E5F4F64E085E090E00E94DA0281E069
:100840008C8789859A85AB85BC8580936B02909354
:100850006C02A0936D02B0936E02CE5BDF4F0FB6B9
:10086000F894DEBF0FBECDBFDF91CF911F910F91E6
:10087000FF90EF90DF90CF9008959B018295880FB5
:10088000807E6CE0680FC9010C940C03CF93DF935A
:10089000EC01898D9A8D892B41F0E881F9810284E0
:1008A000F385E02DCE010995F4CFDF91CF91089526
:1008B000CF93DF931F92CDB7DEB76983DC01ED9153
:1008C000FC910280F381E02D41E050E0BE016F5FBA
:1008D0007F4F09950F90DF91CF9108951F93CF938C
:1008E000DF93FB01DC0158961C921E9257972281E0
:1008F000211109C02381211106C02481211103C0C7
:100900002581222339F14115510521F1EA01DC014C
:100910001C961C91AF014E5F5F4F612F6295660F71
:10092000607E645F24E030E08CE090E00E94DA02B8
:100930004D2F60E170E0812F0E943D044C2F61E15A
:1009400070E0812F0E943D0481E090E0DF91CF9123
:100950001F91089590E080E0F9CFFC01818D928D88
:100960000895FC018589968908952AE431E0FC0107
:1009700031832083FB014189528963897489FC0199
:100980004283538364837583089580E008959B01B7
:100990008295880F807E68E0680FC9010C94BB02C5
:1009A000CF93C82F462F61E070E00E943D0461E0C4
:1009B00070E08C2F0E94C7048111F9CFCF91089568
:1009C000CF93C82F60E170E00E94D0044FEF62E047
:1009D00070E08C2FCF910C943D04CF93DF93EC010A
:1009E0008C85883021F00E94E00488E08C87DF91BC
:1009F000CF910895AF92BF92CF92DF92EF92FF9284
:100A00000F931F93CF93DF93F82E5B016A01E22EC1
:100A100068E270E00E94C704082F10E0102F002742
:100A200069E270E08F2D0E94C704E801C80FD11D54
:100A300080914F02909150020E94B8020E94AB0236
:100A40008D2F0E94B1028C2F0E94B1028F2D8295B2
:100A5000880F807E885E0E94B1028501AC0CBD1CAF
:100A600080E00E94B102F80181938F01EA15FB0535
:100A7000B9F70E94A602E11018C0CC0DDD1D4D2F64
:100A800068E270E08F2D0E943D044C2F69E270E017
:100A90008F2DDF91CF911F910F91FF90EF90DF90FD
:100AA000CF90BF90AF900C943D04DF91CF911F91F8
:100AB0000F91FF90EF90DF90CF90BF90AF9008958F
:100AC000CF93DF931F92CDB7DEB7FC01218D328D1E
:100AD0008FEF9FEF232B59F021E041E050E0BE0162
:100AE0006F5F7F4F84850E94FA04898190E00F90A8
:100AF000DF91CF9108951F93CF93DF93182F66E274
:100B000070E00E94C704C82FD0E0DC2FCC2767E23A
:100B100070E0812F0E94C7048C0F9D2F911DDF91E3
:100B2000CF911F9108951F93CF93DF93182F60E209
:100B300070E00E94C704C82FD0E0DC2FCC2761E210
:100B400070E0812F0E94C7048C0F9D2F911DDF91B3
:100B5000CF911F910895AF92BF92CF92DF92EF9203
:100B6000FF921F93CF93DF93182F5B017A01D12C53
:100B7000C12C812F0E947B05EC01892B21F0812F54
:100B80000E947B056C01CC15DD0599F72097E9F4EF
:100B900063E070E0812F0E94C704843159F08823FC
:100BA00049F0C1E0D0E08C3111F4D0E0C0E0D19543
:100BB000C195D109CE01DF91CF911F91FF90EF90A8
:100BC000DF90CF90BF90AF900895EC16FD060CF427
:100BD000E7011C161D0674F720E0AE01B501812F58
:100BE0000E94FA0460E470E0812F0E94D004E2CFFA
:100BF000CF93DF93FC01218D328D2115310529F42E
:100C00008FEF9FEFDF91CF910895EC01848542171C
:100C1000530708F0A9010E94AB051816190684F7BE
:100C2000298D3A8D281B390B3A8F298FEBCF0F93E3
:100C30001F93CF93DF931F92CDB7DEB7FC01218DB9
:100C4000328D232B41F48FEF9FEF0F90DF91CF91E7
:100C50001F910F9108958C0141E050E0BE016F5F3C
:100C60007F4FFC0184850E94AB05181619065CF7BE
:100C7000F801818D928D0197928F818F898190E00B
:100C8000E4CF7F928F929F92AF92BF92CF92DF92EA
:100C9000EF92FF920F931F93CF93DF937C014B0151
:100CA0008A01FC01C789D08D7484B12CA12C872DB9
:100CB0000E9493056C01892B21F0872D0E949305DA
:100CC0005C01CA14DB0499F7C016D10678F4D12C64
:100CD000C12C872D0E9493058C01892B21F0872D33
:100CE0000E9493056C010C151D0599F764E270E0F4
:100CF000872D0E94C704D82E65E270E0872D0E94E0
:100D0000C704C80FD11D8D2D90E0982F8827C80FDC
:100D1000D91F672D6295660F607E6C5E9801A401F5
:100D2000CE010E94DA02C00FD11F4D2F64E270E0A5
:100D3000872D0E943D044C2F65E270E0872D0E94B4
:100D40003D04F7018789908D800F911F908F878BCD
:100D5000C801DF91CF911F910F91FF90EF90DF902D
:100D6000CF90BF90AF909F908F907F900895CF933A
:100D7000FC01C48560E270E08C2F0E94D00462E028
:100D800070E08C2F0E94C70484FD11C062E070E007
:100D90008C2F0E94C70483FFF2CF48E162E070E02D
:100DA0008C2F0E943D0490E080E0CF91089540E1B7
:100DB00062E070E08C2F0E943D0481E090E0F5CF6E
:100DC000EF92FF920F931F93CF93FC01248528305D
:100DD00039F080E0CF911F910F91FF90EF9008952F
:100DE0007B018C01C0E063E070E08C2F0E94C7049F
:100DF000811129C0F801C487F801C485C83049F3BE
:100E0000F686E586128E118E8C2F0E94E00442E059
:100E100070E060E08C2F0E943D04E114F104C9F001
:100E20004F2D64E070E08C2F0E943D044E2D65E054
:100E300070E08C2F0E943D0461E070E08C2F0E94D6
:100E4000D00481E0C7CF8831A9F2CF5FC83059F60E
:100E5000D3CF00917201109173010F5F1F4F109358
:100E6000730100937201412F64E070E08C2F0E94A7
:100E70003D04402FDCCF90E080E00895DC01ED914F
:100E8000FC91048CF58DE02D0994FC018081918109
:100E9000009711F00C9414100895FB0101900020AC
:100EA000E9F73197AF01461B570BDC01ED91FC913F
:100EB0000280F381E02D09948F929F92AF92BF92AE
:100EC000EF92FF920F931F93CF93DF93CDB7DEB7CF
:100ED000A1970FB6F894DEBF0FBECDBF7C01FA011B
:100EE000CB0119A2223008F42AE08E010F5D1F4FBA
:100EF000822E912CB12CA12CBF01A50194010E943E
:100F0000500FF901CA016A300CF5605DD8016E938B
:100F10008D01232B242B252B79F790E080E010976F
:100F200021F0BD01C7010E944D07A1960FB6F894AC
:100F3000DEBF0FBECDBFDF91CF911F910F91FF900C
:100F4000EF90BF90AF909F908F900895695CDECF37
:100F5000CF93DF93BC0182EB91E00E944D07EC013F
:100F60006CE471E082EB91E00E944D078C0F9D1FB5
:100F7000DF91CF9108958F929F92AF92BF92CF92BF
:100F8000DF92EF92FF920F931F93CF93DF937C0139
:100F9000EB016C0182E0C80ED11C4701E5E08E0E2A
:100FA000911C10E000E0F60141916F0150E070E00B
:100FB00060E02AE0CE010E945C075C01E881F981D3
:100FC0000190F081E02D6EE2CE0109958A0D9B1D06
:100FD000080F191FC814D90431F7F701458150E0F3
:100FE00070E060E02AE0CE010E945C07800F911F54
:100FF000DF91CF911F910F91FF90EF90DF90CF90F5
:10100000BF90AF909F908F9008950F931F93CF93B1
:10101000DF93EC0188819981009759F02A813B8107
:101020002617370730F081E0DF91CF911F910F91A4
:1010300008958B016F5F7F4F0E949D10009759F0BC
:10104000998388831B830A832C813D81232B59F745
:10105000FC011082E8CF80E0E7CF0F931F93CF937E
:10106000DF93EC018B010E940508288139818111F1
:1010700012C02115310519F0C9010E9414101982FE
:1010800018821D821C821B821A82CE01DF91CF91B1
:101090001F910F9108951D830C836EE471E0C901C7
:1010A0000E946311F2CFEF92FF920F931F93CF93A1
:1010B000DF9300D0CDB7DEB78C0169831A82FC01C3
:1010C000E480F580FFEFEF1AFF0AB7010E940508E0
:1010D000882381F0F8012081318184819581BE01CE
:1010E0006F5F7F4F820F931F0E946311F801F5829B
:1010F000E48281E00F900F90DF91CF911F910F91CB
:10110000FF90EF900895BF92CF92DF92EF92FF92FF
:101110000F931F93CF93DF93CDB7DEB728970FB60A
:10112000F894DEBF0FBECDBF8C01DC01ED91FC91C8
:101130000680F781E02D0995F801B484D12CC12CEB
:101140008B2D0E947B057C01892B21F08B2D0E9429
:101150007B056C01EC14FD0499F790E080E0EF282A
:1011600059F148E050E0BE016F5F7F4FD8011C96F7
:101170008C910E94AB0518161906F4F4D80151960B
:1011800084E0FE01319601900D928A95E1F78D8100
:1011900090E0982F88272E81820F911DF801968B61
:1011A000858B8F81282F30E0322F22278885820F70
:1011B000932F911D928F818F28960FB6F894DEBFE2
:1011C0000FBECDBFDF91CF911F910F91FF90EF9098
:1011D000DF90CF90BF9008956F927F928F929F92F1
:1011E000AF92BF92CF92DF92EF92FF920F931F9335
:1011F000CF93DF93CDB7DEB7EC970FB6F894DEBF91
:101200000FBECDBF4C018B013A018AE491E09A8375
:1012100089831C861B8648EE53E060E070E04D87B2
:101220005E876F87788B22E231E03A87298728E052
:101230002D8B998F888F1A8E1B8E1C8E1D8E99ABCD
:1012400088AB1AAA1BAA1CAA1DAA80916B029091B6
:101250006C02A0916D02B0916E028EA39FA3A8A70D
:10126000B9A78B839C83AD83BE8318861F82F80148
:10127000D8018D918111FDCF30E020E090E080E039
:101280005AE04191442319F1843091050CF045C096
:101290004E3281F42F3F310511F00CF03EC0A2E335
:1012A000B0E0AC0FBD1FA80FB91F2C93019630E022
:1012B00020E0E7CF529FB001539F700D1124242FDF
:1012C000440F330B20533109260F371FDACF2F3F3E
:1012D000310509F014F584309105FCF48C0F9D1F45
:1012E000DC01D2962C93D401ED91FC910488F58910
:1012F000E02D8AE491E09DA38CA38AA99BA9ACA9C7
:10130000BDA98EA39FA3A8A7B9A7A301BE016C5D29
:101310007F4FC40109958C013FC04B815C816D8179
:101320007E8180917E0290917F02A0918002B09197
:101330008102481759076A077B0709F422C20E94F5
:1013400068026F7077277C5FCE0109960E94E006E5
:10135000813009F019C28AE491E09DA38CA38B81AE
:101360009C81AD81BE818EA39FA3A8A7B9A745E3A9
:1013700050E0BE016C5D7F4FCE0109960E946E0465
:10138000892B01F510E000E0CE0109960E94ED04E2
:101390000130110509F4A7CFC801EC960FB6F894F7
:1013A000DEBF0FBECDBFDF91CF911F910F91FF9098
:1013B000EF90DF90CF90BF90AF909F908F907F90F5
:1013C0006F9008950E94680278876F8342E050E032
:1013D000BE01695F7F4FCE0109960E94410681E000
:1013E00090E09DA38CA342E050E0BE016C5D7F4F76
:1013F000CE0109960E94410680E091E09DA38CA356
:1014000042E050E0BE016C5D7F4FCE0109960E9424
:1014100041061DA21CA242E050E0BE016C5D7F4F60
:10142000CE0109960E94410642E050E0BE016C5D8B
:101430007F4FCE0109960E94410642E050E0BE0176
:101440006C5D7F4FCE0109960E9441067801F8013C
:101450008081882311F18701D8018D916D01882346
:1014600011F08E32C1F45801AE18BF081A141B04D3
:1014700084F4AEAA41E050E0BE016A5C7F4FCE0129
:1014800009960E944106A501B701CE0109960E9466
:1014900041067601DCCF8601DFCF1EAA41E050E095
:1014A000BE016A5C7F4FCE0109960E94410600E0B2
:1014B00011E01DA30CA342E050E0BE016C5D7F4F24
:1014C000CE0109960E9441061DA30CA342E050E004
:1014D000BE016C5D7F4FCE0109960E944106CE0190
:1014E00009960E94B706892B09F44CCF83E0E82EB9
:1014F000F12C41C04B815C816D817E818A8D9B8DF9
:10150000AC8DBD8D481759076A077B0709F036C1B6
:101510008E8D9F8DC59709F031C18AA19BA10DEFDA
:101520001FEF0C97FCF04CE050E0BE016C5D7F4F6C
:10153000CE0109960E94F8058EA19FA198278927C0
:1015400098279BAF8AAF4F8158852CA13DA14217A8
:10155000530711F497FD2EC0CE0109960E94460450
:101560000CEF1FEFA1E0EA1AF10809F40DCF0F3FCD
:10157000100709F009CF0E9468025B016C01CE01DF
:1015800009960E948308181619060CF4B3CF0E941E
:1015900068026A197B098C099D09693873418105C4
:1015A000910508F0E8C062E370E080E090E00E94FE
:1015B0003602E5CF8F709270892B39F0CE010996F3
:1015C0000E9446040BEF1FEFCDCFAAA4BBA4BA2400
:1015D000AB24BA2410E000E0A114B104E1F4CE0180
:1015E00009960E9446040AEF1FEFBCCF8EA9811115
:1015F0001AC0CE0109960E941706CE0109960E94D4
:101600001706CE0109960E941706CE0109960E9480
:1016100017060F5F1F4F88A599A598278927982738
:1016200008171907B8F441E050E0BE016A5C7F4F2B
:10163000CE0109960E94F8058EA98823B9F28EA9D9
:101640009FEF980F9EAB882389F2CE0109960E94E6
:101650001706F5CFD12CC12C41E050E0BE01645CEF
:101660007F4FCE0109960E94F8058CAD982F907C93
:1016700069F4882399F08CAD9FEF980F9CAF882375
:1016800051F0CE0109960E941706F5CFCE010996BA
:101690000E9417061CAE8CAD8111DECF42E050E0F7
:1016A000BE01685C7F4FCE0109960E94F80542E0BA
:1016B00050E0BE016A5C7F4FCE0109960E94F8059A
:1016C000CE0109960E941706CE0109960E941706C0
:1016D000CE0109960E941706CE0109960E941706B0
:1016E00042E050E0BE01665C7F4FCE0109960E9449
:1016F000F80588AD99AD81159140F1F40EA91FA9A7
:1017000010270127102701301105B1F48AAD9BADD8
:101710008115944039F0CE0109960E94460407EFE6
:101720001FEF20CF44E050E0BE016E5C7F4FCE0142
:1017300009960E94F80516CF10E000E08AAD9BAD37
:101740009827892798270817190738F4CE01099692
:101750000E9417060F5F1F4FF1CF8FEFC81AD80AEC
:10176000AC14BD0409F078CFCE0109960E9446045E
:1017700006EF1FEFF7CE0FEF1FEFF4CE0EEF1FEFC8
:10178000F1CE0EEF1FEF08CE10E000E005CE1F9265
:101790000F920FB60F9211242F933F934F935F93A5
:1017A0006F937F938F939F93AF93BF93EF93FF9329
:1017B00082EB91E00E943601FF91EF91BF91AF91D2
:1017C0009F918F917F916F915F914F913F912F9159
:1017D0000F900FBE0F901F9018951F920F920FB68B
:1017E0000F9211242F938F939F93EF93FF93E09188
:1017F000C201F091C3018081E091C801F091C9015B
:1018000082FD1BC090818091CB018F5F8F732091EF
:10181000CC01821741F0E091CB01F0E0EE54FE4F95
:10182000958F8093CB01FF91EF919F918F912F9195
:101830000F900FBE0F901F9018958081F4CF1F92CC
:101840000F920FB60F9211242F933F938F939F9374
:10185000AF93BF938091750190917601A09177012C
:10186000B09178013091740123E0230F2D3758F5A2
:101870000196A11DB11D2093740180937501909371
:101880007601A0937701B0937801809179019091CE
:101890007A01A0917B01B0917C010196A11DB11D3F
:1018A0008093790190937A01A0937B01B0937C019E
:1018B000BF91AF919F918F913F912F910F900FBE4C
:1018C0000F901F90189526E8230F0296A11DB11DB9
:1018D000D2CFE2EBF1E01382128248EE53E060E0F7
:1018E00070E0448355836683778380E191E0918340
:1018F000808385EC90E09587848784EC90E09787DF
:10190000868780EC90E0918B808B81EC90E0938BCC
:10191000828B82EC90E0958B848B86EC90E0978BA9
:10192000868B118E128E138E148EEFE4F2E080E51A
:10193000808381E08183E1E5F2E08AE491E09183B4
:1019400080831282138214821582E7E5F2E091838C
:1019500080831282138214821582EDE5F2E0918376
:1019600080831282138214821582E3E6F2E091836F
:1019700080831282138214821582E6E7F2E091835B
:1019800080831282138214821582E9E6F2E0918349
:1019900080831282138214821582138612862AE0B3
:1019A0002487ECE7F2E09183808312821382148211
:1019B0001582E2E8F2E0918380831282138214821E
:1019C0001582EFEAF2E091838083128213821482FF
:1019D0001582E9EAF2E091838083A0ECA28338EAE1
:1019E000338325E02483B9E1B583E3EAF2E0918310
:1019F0008083A2833383248323E02583E8E8F2E015
:101A000013821282448355836683778322E231E016
:101A10003183208328E02487908B8787118A128A5C
:101A2000138A148A0895CF93DF93CDB7DEB76897F2
:101A30000FB6F894DEBF0FBECDBF789484B5826038
:101A400084BD84B5816084BD85B5826085BD85B562
:101A5000816085BD80916E00816080936E001092E0
:101A6000810080918100826080938100809181005B
:101A700081608093810080918000816080938000EC
:101A80008091B10084608093B1008091B00081604A
:101A90008093B00080917A00846080937A00809176
:101AA0007A00826080937A0080917A0081608093CE
:101AB0007A0080917A00806880937A001092C10049
:101AC000E091C201F091C30182E08083E091BE0108
:101AD000F091BF011082E091C001F091C10180E15D
:101AE00080831092CA01E091C601F091C70186E09F
:101AF0008083E091C401F091C50180818061808381
:101B0000E091C401F091C501808188608083E091FB
:101B1000C401F091C501808180688083E091C40197
:101B2000F091C50180818F7D80838AE090E0A0E004
:101B3000B0E08093B6019093B701A093B801B09341
:101B4000B9018FE491E00E94A8078AE491E09A83AA
:101B500089838091AB029091AC02A091AD02B091CB
:101B6000AE028B839C83AD83BE83CE0101960E941F
:101B70002D0363E273E288E892E00E94E00690EBB6
:101B8000C92E91E0D92E20E0E22E20E0F22E3AE498
:101B9000A32E31E0B32E82EB91E00E9416011816BD
:101BA00019060CF0FEC01C8A1B8A1E8A1D8A188E1C
:101BB0001F8A70E060E0CE0143960E942D080E94CB
:101BC000740297FD06C0682FCE0143960E94530809
:101BD000F6CF1E861D86188A1F861A8A198A70E01B
:101BE00060E0CE010D960E942D0810E000E08F8984
:101BF000988D0817190748F5B801CE0143960E9441
:101C0000A600FC0180818032E9F0B801CE01439644
:101C10000E94A600FC0180818B35A1F0B801CE01A5
:101C200043960E94A600FC0180818D3559F0B801D1
:101C3000CE0143960E94A600FC016081CE010D9664
:101C40000E9453080F5F1F4FD2CF09891A890F5F77
:101C50001F4FB801CE010D960E940508882361F040
:101C60002D853E8589899A8963E671E0820F931FED
:101C70000E9463111A8B098B18861F821A86198697
:101C80001C861B8670E060E0CE0107960E942D083E
:101C900010E000E0912C812C89899A890817190796
:101CA00090F5B801CE010D960E94A600FC0180813E
:101CB0008C32E9F48F8198850097A9F00E94DD0E9F
:101CC000F401EE0FFF1FE258FE4F7183608370E056
:101CD00060E0CE0107960E942D08FFEF8F1A9F0A41
:101CE0000F5F1F4FD9CF60E070E0CB01E9CFB801A3
:101CF000CE010D960E94A600FC016081CE010796E0
:101D00000E945308EDCF85E691E00E94A8070EE7F8
:101D100011E0C016D10691F0F801419151918F0167
:101D200070E060E02AE082EB91E00E945C076FE6E1
:101D300071E082EB91E00E944D07EBCF8EE491E0E1
:101D40000E94A807BA82A9828091A5029091A6025A
:101D5000A091A702B091A8028B839C83AD83BE8320
:101D600048EA51E6BE016F5F7F4F88E892E00E942B
:101D70006E0442E350E06EE771E088E892E00E9472
:101D8000410688E892E00E94B706CE0107960E94BD
:101D90004507CE010D960E944507CE0143960E944D
:101DA0004507E114F10409F4F6CE0E9422018823CC
:101DB00009F4F1CE0E940000EECE1F93FC0199279A
:101DC0008827BC01E89411911032E9F3193010F022
:101DD0001E30C8F31B3251F01D3249F4689406C01E
:101DE0000E94040F610F711D811D911D11911053EF
:101DF0001A30B0F33EF490958095709561957F4FC1
:101E00008F4F9F4F1F910895592F482F372F262FFF
:101E1000660F771F881F991F660F771F881F991FEE
:101E2000620F731F841F951F660F771F881F991FEE
:101E300008952F923F924F925F926F927F928F926E
:101E40009F92AF92BF92CF92DF92EF92FF920F9349
:101E50001F93CF93DF93CDB7DEB7CA1BDB0B0FB653
:101E6000F894DEBF0FBECDBF09942A883988488810
:101E70005F846E847D848C849B84AA84B984C884A6
:101E8000DF80EE80FD800C811B81AA81B981CE0F9D
:101E9000D11D0FB6F894DEBF0FBECDBFED01089582
:101EA000A1E21A2EAA1BBB1BFD010DC0AA1FBB1F5E
:101EB000EE1FFF1FA217B307E407F50720F0A21BD0
:101EC000B30BE40BF50B661F771F881F991F1A943D
:101ED00069F760957095809590959B01AC01BD0167
:101EE000CF010895EE0FFF1F0590F491E02D0994A6
:101EF0000F931F93CF93DF938230910510F482E00C
:101F000090E0E091B702F091B80230E020E0B0E05C
:101F1000A0E0309799F42115310509F44AC0281B37
:101F2000390B24303105D8F58A819B816115710503
:101F300089F1FB0193838283FE0111C040815181AD
:101F40000281138148175907E0F04817590799F49F
:101F5000109761F012960C93129713961C93329679
:101F6000CF01DF91CF911F910F9108950093B70298
:101F70001093B802F4CF2115310551F042175307E1
:101F800038F0A901DB019A01BD01DF01F801C1CFE1
:101F9000EF01F9CF9093B8028093B702CDCFFE0145
:101FA000E20FF31F819391932250310939832883E3
:101FB000D7CF2091B5023091B602232B41F4209166
:101FC0000801309109013093B6022093B5022091A7
:101FD0000601309107012115310541F42DB73EB7B7
:101FE00040910A0150910B01241B350BE091B50281
:101FF000F091B602E217F307A0F42E1B3F0B28174F
:10200000390778F0AC014E5F5F4F2417350748F071
:102010004E0F5F1F5093B6024093B5028193919388
:102020009FCFF0E0E0E09CCFCF93DF930097E9F003
:10203000FC01329713821282A091B702B091B802CC
:10204000ED0130E020E01097A1F420813181820F72
:10205000931F2091B5023091B6022817390709F075
:1020600061C0F093B602E093B502DF91CF9108957D
:10207000EA01CE17DF07E8F54A815B819E01411531
:102080005105B1F7E901FB83EA8349915991C40FE6
:10209000D51FEC17FD0761F4808191810296840FB2
:1020A000951FE90199838883828193819B838A8329
:1020B000F0E0E0E012968D919C9113970097B9F5AE
:1020C0002D913C911197CD010296820F931F209183
:1020D000B5023091B6022817390739F6309751F515
:1020E0001092B8021092B702B093B602A093B50254
:1020F000BCCFD383C28340815181840F951FC81701
:10210000D90761F44E5F5F4F88819981480F591F4D
:10211000518340838A819B8193838283211531057A
:1021200009F0B0CFF093B802E093B7029ECFFD0163
:10213000DC01C0CF13821282D7CFB0E0A0E0E3EA87
:10214000F0E10C941B0F8C01009751F4CB010E941D
:10215000780F8C01C801CDB7DEB7E0E10C94370FE2
:10216000FC01E60FF71F9C0122503109E217F3072B
:1021700008F49DC0D901CD91DC911197C617D707FE
:1021800098F0C530D10530F3CE0104978617970734
:1021900008F3C61BD70B2297C193D1936D937C9301
:1021A000CF010E941410D6CF5B01AC1ABD0A4C01BE
:1021B0008C0E9D1EA091B702B091B802512C412CFB
:1021C000F12CE12C109731F58091B5029091B60277
:1021D0008815990509F05CC04616570608F058C0E6
:1021E0008091060190910701009741F48DB79EB749
:1021F00040910A0150910B01841B950BE817F907D8
:1022000008F055C0F093B602E093B502F90171836E
:102210006083A0CF8D919C91119712966C9012972C
:1022200013967C901397A815B90559F56C0142E0F7
:10223000C40ED11CCA14DB0420F1AC014A195B099D
:10224000DA011296159780F062827382518340837F
:10225000D9016D937C93E114F10471F0D7011396C9
:10226000FC93EE93129776CF22968C0F9D1FF90167
:1022700091838083F301EFCFF093B802E093B7022C
:1022800069CF4816590608F42C017D01D3019ACF75
:10229000CB010E94780F7C01009749F0AE01B80194
:1022A0000E945A11C8010E941410870153CF10E0F8
:1022B00000E050CFFB01DC0102C001900D924150C3
:1022C0005040D8F70895FB01DC0101900D920020E9
:0822D000E1F70895F894FFCF37
:1022D800DEADBEEFFE030000B90280000000000082
:1022E8005801B800E500A5011601F4000801000036
:1022F8000000580441063B074604AD041706600574
:10230800E006C504ED046E04EC08B7068308F8057A
:102318003E07B504B10400000000BB070D0A0049E0
:102328006E697469616C697A696E6720434F4D2ED6
:102338002E2E002C000A636F6D6D616E643A0020CA
:02234800000093
:107800000C94343C0C94513C0C94513C0C94513CE1
:107810000C94513C0C94513C0C94513C0C94513CB4
:107820000C94513C0C94513C0C94513C0C94513CA4
:107830000C94513C0C94513C0C94513C0C94513C94
:107840000C94513C0C94513C0C94513C0C94513C84
:107850000C94513C0C94513C0C94513C0C94513C74
:107860000C94513C0C94513C11241FBECFEFD8E036
:10787000DEBFCDBF11E0A0E0B1E0ECE9FFE702C060
:1078800005900D92A230B107D9F712E0A2E0B1E065
:1078900001C01D92AD30B107E1F70E942D3D0C945F
:1078A000CC3F0C94003C982F959595959595959582
:1078B000905D8F708A307CF0282F295A8091C0000B
:1078C00085FFFCCF9093C6008091C00085FFFCCF60
:1078D0002093C6000895282F205DF0CF982F809127
:1078E000C00085FFFCCF9093C6000895EF92FF92F1
:1078F0000F931F93EE24FF2487018091C00087FD22
:1079000017C00894E11CF11C011D111D81E4E8164B
:1079100082E4F8068FE0080780E0180770F3E09132
:107920000401F091050109958091C00087FFE9CF1E
:107930008091C6001F910F91FF90EF9008950E94D3
:10794000763C982F8091C00085FFFCCF9093C600B5
:1079500091362CF490330CF09053892F089597555D
:10796000892F08951F930E949F3C182F0E949F3CCF
:107970001295107F810F1F9108951F93182F882350
:1079800021F00E94763C1150E1F71F9108951F935A
:10799000182F0E94763C803249F0809103018F5F5E
:1079A000809303018530C1F01F9108958091C0003C
:1079B00085FFFCCF84E18093C6008091C00085FFE5
:1079C000FCCF1093C6008091C00085FFFCCF80E102
:1079D0008093C6001F910895E0910401F091050184
:1079E00009951F9108950E94763C803241F0809164
:1079F00003018F5F80930301853081F008958091AA
:107A0000C00085FFFCCF84E18093C6008091C00058
:107A100085FFFCCF80E18093C6000895E0910401CA
:107A2000F09105010995089540E951E08823A1F0FE
:107A30002D9A28EE33E0FA013197F1F721503040CA
:107A4000D1F72D9828EE33E0FA013197F1F7215064
:107A50003040D1F7815061F708953F924F925F9285
:107A60006F927F928F929F92AF92BF92CF92DF924E
:107A7000EF92FF920F931F93CF93DF93000080E16B
:107A80008093C4001092C50088E18093C10086E015
:107A90008093C2005098589A259A81E00E94143D24
:107AA00024E1F22E9EE1E92E85E9D82E0FE0C02ECA
:107AB00010E1B12EAA24A394B1E49B2EA6E58A2E50
:107AC000F2E57F2EE0E26E2E79E4572E63E5462E36
:107AD00050E5352E0E94763C8033B1F18133B9F107
:107AE000803409F46FC0813409F476C0823409F41B
:107AF00085C0853409F488C0803531F1823521F1A3
:107B0000813511F1853509F485C0863509F48DC0BC
:107B1000843609F496C0843709F403C1853709F423
:107B200072C1863709F466C0809103018F5F80932C
:107B30000301853079F6E0910401F0910501099582
:107B40000E94763C803351F60E94F33CC3CF0E94E2
:107B5000763C803249F78091C00085FFFCCFF092DF
:107B6000C6008091C00085FFFCCF9092C600809136
:107B7000C00085FFFCCF8092C6008091C00085FFC9
:107B8000FCCF7092C6008091C00085FFFCCF609250
:107B9000C6008091C00085FFFCCF5092C600809146
:107BA000C00085FFFCCF4092C6008091C00085FFD9
:107BB000FCCF3092C6008091C00085FFFCCFB09210
:107BC000C60088CF0E94763C863808F4BDCF0E945C
:107BD000763C0E94F33C7ECF0E94763C803809F4CC
:107BE0009CC0813809F40BC1823809F43CC1883942
:107BF00009F48FC080E00E94C73C6CCF84E10E94F2
:107C0000BD3C0E94F33C66CF85E00E94BD3C0E94D3
:107C1000F33C60CF0E94763C809306010E94763C44
:107C2000809307010E94F33C55CF0E94763C80333D
:107C300009F41DC183E00E94BD3C80E00E94C73C66
:107C400049CF0E94763C809309020E94763C809343
:107C5000080280910C028E7F80930C020E94763C79
:107C6000853409F415C18091080290910902892B8D
:107C700089F000E010E00E94763CF801E85FFE4FDA
:107C800080830F5F1F4F80910802909109020817AF
:107C9000190788F30E94763C803209F045CF809125
:107CA0000C0280FF01C16091060170910701660F0F
:107CB000771F7093070160930601A0910802B091AD
:107CC00009021097C9F0E8E0F1E09B01AD014E0F09
:107CD0005F1FF999FECF32BD21BD819180BDFA9A17
:107CE000F99A2F5F3F4FE417F50799F76A0F7B1F4B
:107CF00070930701609306018091C00085FFFCCF5F
:107D0000F092C6008091C00085FFFCCFB092C60003
:107D1000E1CE83E00E94C73CDDCE82E00E94C73CFA
:107D2000D9CE0E94763C809309020E94763C8093D3
:107D300008028091060190910701880F991F909386
:107D40000701809306010E94763C853409F4A6C0A1
:107D500080910C028E7F80930C020E94763C8032D0
:107D600009F0B8CE8091C00085FFFCCFF092C6002C
:107D7000609108027091090261157105B9F140E046
:107D800050E080910C02A82FA170B82FB27011C0E2
:107D9000BB2309F45CC0E0910601F0910701319624
:107DA000F0930701E09306014F5F5F4F46175707B7
:107DB000E8F4AA2369F3F999FECF209106013091E6
:107DC000070132BD21BDF89A90B58091C00085FFB2
:107DD000FCCF9093C6002F5F3F4F30930701209355
:107DE00006014F5F5F4F4617570718F38091C00099
:107DF00085FDE5CE8091C00085FFF8CFE0CE81E023
:107E00000E94C73C67CE0E94763C803209F08CCE3F
:107E10008091C00085FFFCCFF092C6008091C00029
:107E200085FFFCCFE092C6008091C00085FFFCCFAB
:107E3000D092C6008091C00085FFFCCFC092C600E2
:107E40008091C00085FFFCCFB092C60043CEE09188
:107E50000601F091070194918091C00085FFFCCF4D
:107E60009093C6009CCF80E10E94C73C33CE0E9415
:107E7000763C0E94763C182F0E94763C112309F430
:107E800083C0113009F484C08FE00E94C73C22CE29
:107E900080910C02816080930C02E5CE80910C02EF
:107EA000816080930C0259CF809107018823880F4D
:107EB000880B8A2180930B02809106019091070123
:107EC000880F991F90930701809306018091080203
:107ED00080FF09C080910802909109020196909359
:107EE000090280930802F894F999FECF1127E091D6
:107EF0000601F0910701C8E0D1E08091080290915D
:107F00000902103091F40091570001700130D9F34B
:107F100003E000935700E89500915700017001308D
:107F2000D9F301E100935700E89509901990009169
:107F3000570001700130D9F301E000935700E89534
:107F40001395103498F011270091570001700130FB
:107F5000D9F305E000935700E895009157000170B0
:107F60000130D9F301E100935700E895329602976A
:107F700009F0C7CF103011F00296E5CF112480919F
:107F8000C00085FFB9CEBCCE8EE10E94C73CA2CD19
:0C7F900085E90E94C73C9ECDF894FFCF0D
:027F9C00800063
:040000030000780081
:00000001FF
